{
  "_format": "hh-sol-artifact-1",
  "contractName": "Certificate",
  "sourceName": "contracts/Certificate.sol",
  "abi": [
    {
      "inputs": [],
      "stateMutability": "nonpayable",
      "type": "constructor"
    },
    {
      "inputs": [
        {
          "internalType": "address",
          "name": "owner",
          "type": "address"
        }
      ],
      "name": "OwnableInvalidOwner",
      "type": "error"
    },
    {
      "inputs": [
        {
          "internalType": "address",
          "name": "account",
          "type": "address"
        }
      ],
      "name": "OwnableUnauthorizedAccount",
      "type": "error"
    },
    {
      "anonymous": false,
      "inputs": [
        {
          "indexed": true,
          "internalType": "string",
          "name": "courseId",
          "type": "string"
        },
        {
          "indexed": true,
          "internalType": "string",
          "name": "userId",
          "type": "string"
        },
        {
          "indexed": false,
          "internalType": "uint256",
          "name": "timestamp",
          "type": "uint256"
        }
      ],
      "name": "CertificateIssued",
      "type": "event"
    },
    {
      "anonymous": false,
      "inputs": [
        {
          "indexed": true,
          "internalType": "address",
          "name": "previousOwner",
          "type": "address"
        },
        {
          "indexed": true,
          "internalType": "address",
          "name": "newOwner",
          "type": "address"
        }
      ],
      "name": "OwnershipTransferred",
      "type": "event"
    },
    {
      "inputs": [
        {
          "internalType": "string",
          "name": "",
          "type": "string"
        },
        {
          "internalType": "string",
          "name": "",
          "type": "string"
        }
      ],
      "name": "certificates",
      "outputs": [
        {
          "internalType": "string",
          "name": "courseId",
          "type": "string"
        },
        {
          "internalType": "string",
          "name": "userId",
          "type": "string"
        },
        {
          "internalType": "uint256",
          "name": "timestamp",
          "type": "uint256"
        },
        {
          "internalType": "bool",
          "name": "exists",
          "type": "bool"
        }
      ],
      "stateMutability": "view",
      "type": "function"
    },
    {
      "inputs": [
        {
          "internalType": "string",
          "name": "courseId",
          "type": "string"
        },
        {
          "internalType": "string",
          "name": "userId",
          "type": "string"
        }
      ],
      "name": "getCertificate",
      "outputs": [
        {
          "components": [
            {
              "internalType": "string",
              "name": "courseId",
              "type": "string"
            },
            {
              "internalType": "string",
              "name": "userId",
              "type": "string"
            },
            {
              "internalType": "uint256",
              "name": "timestamp",
              "type": "uint256"
            },
            {
              "internalType": "bool",
              "name": "exists",
              "type": "bool"
            }
          ],
          "internalType": "struct Certificate.CertificateData",
          "name": "",
          "type": "tuple"
        }
      ],
      "stateMutability": "view",
      "type": "function"
    },
    {
      "inputs": [
        {
          "internalType": "string",
          "name": "userId",
          "type": "string"
        }
      ],
      "name": "getCertificatesByOwner",
      "outputs": [
        {
          "components": [
            {
              "internalType": "string",
              "name": "courseId",
              "type": "string"
            },
            {
              "internalType": "string",
              "name": "userId",
              "type": "string"
            },
            {
              "internalType": "uint256",
              "name": "timestamp",
              "type": "uint256"
            },
            {
              "internalType": "bool",
              "name": "exists",
              "type": "bool"
            }
          ],
          "internalType": "struct Certificate.CertificateData[]",
          "name": "",
          "type": "tuple[]"
        }
      ],
      "stateMutability": "view",
      "type": "function"
    },
    {
      "inputs": [
        {
          "internalType": "string",
          "name": "courseId",
          "type": "string"
        },
        {
          "internalType": "string",
          "name": "userId",
          "type": "string"
        }
      ],
      "name": "issueCertificate",
      "outputs": [],
      "stateMutability": "nonpayable",
      "type": "function"
    },
    {
      "inputs": [],
      "name": "owner",
      "outputs": [
        {
          "internalType": "address",
          "name": "",
          "type": "address"
        }
      ],
      "stateMutability": "view",
      "type": "function"
    },
    {
      "inputs": [],
      "name": "renounceOwnership",
      "outputs": [],
      "stateMutability": "nonpayable",
      "type": "function"
    },
    {
      "inputs": [
        {
          "internalType": "address",
          "name": "newOwner",
          "type": "address"
        }
      ],
      "name": "transferOwnership",
      "outputs": [],
      "stateMutability": "nonpayable",
      "type": "function"
    }
  ],
  "bytecode": "0x60806040523480156200001157600080fd5b5033600073ffffffffffffffffffffffffffffffffffffffff168173ffffffffffffffffffffffffffffffffffffffff1603620000885760006040517f1e4fbdf70000000000000000000000000000000000000000000000000000000081526004016200007f9190620001a9565b60405180910390fd5b6200009981620000a060201b60201c565b50620001c6565b60008060009054906101000a900473ffffffffffffffffffffffffffffffffffffffff169050816000806101000a81548173ffffffffffffffffffffffffffffffffffffffff021916908373ffffffffffffffffffffffffffffffffffffffff1602179055508173ffffffffffffffffffffffffffffffffffffffff168173ffffffffffffffffffffffffffffffffffffffff167f8be0079c531659141344cd1fd0a4f28419497f9722a3daafe3b4186f6b6457e060405160405180910390a35050565b600073ffffffffffffffffffffffffffffffffffffffff82169050919050565b6000620001918262000164565b9050919050565b620001a38162000184565b82525050565b6000602082019050620001c0600083018462000198565b92915050565b6116a480620001d66000396000f3fe608060405234801561001057600080fd5b506004361061007d5760003560e01c80634fdbcd221161005b5780634fdbcd2214610101578063715018a6146101315780638da5cb5b1461013b578063f2fde38b146101595761007d565b80630dd2e87614610082578063211bbe71146100b25780634cacb14e146100ce575b600080fd5b61009c60048036038101906100979190610d52565b610175565b6040516100a99190610ee7565b60405180910390f35b6100cc60048036038101906100c79190610d52565b610313565b005b6100e860048036038101906100e39190610d52565b610515565b6040516100f89493929190610f71565b60405180910390f35b61011b60048036038101906101169190610fc4565b61069b565b6040516101289190611139565b60405180910390f35b6101396109b8565b005b6101436109cc565b604051610150919061119c565b60405180910390f35b610173600480360381019061016e91906111e3565b6109f5565b005b61017d610bce565b60018360405161018d919061124c565b9081526020016040518091039020826040516101a9919061124c565b90815260200160405180910390206040518060800160405290816000820180546101d290611292565b80601f01602080910402602001604051908101604052809291908181526020018280546101fe90611292565b801561024b5780601f106102205761010080835404028352916020019161024b565b820191906000526020600020905b81548152906001019060200180831161022e57829003601f168201915b5050505050815260200160018201805461026490611292565b80601f016020809104026020016040519081016040528092919081815260200182805461029090611292565b80156102dd5780601f106102b2576101008083540402835291602001916102dd565b820191906000526020600020905b8154815290600101906020018083116102c057829003601f168201915b50505050508152602001600282015481526020016003820160009054906101000a900460ff161515151581525050905092915050565b61031b610a7b565b60018260405161032b919061124c565b908152602001604051809103902081604051610347919061124c565b908152602001604051809103902060030160009054906101000a900460ff16156103a6576040517f08c379a000000000000000000000000000000000000000000000000000000000815260040161039d9061130f565b60405180910390fd5b6040518060800160405280838152602001828152602001428152602001600115158152506001836040516103da919061124c565b9081526020016040518091039020826040516103f6919061124c565b9081526020016040518091039020600082015181600001908161041991906114db565b50602082015181600101908161042f91906114db565b506040820151816002015560608201518160030160006101000a81548160ff02191690831515021790555090505060028160405161046d919061124c565b9081526020016040518091039020829080600181540180825580915050600190039060005260206000200160009091909190915090816104ad91906114db565b50806040516104bc919061124c565b6040518091039020826040516104d2919061124c565b60405180910390207f24a04857698b6d767a0b6c787412aaeba1015d94408ca75c0a32aff28c2074aa4260405161050991906115ad565b60405180910390a35050565b600182805160208101820180518482526020830160208501208183528095505050505050818051602081018201805184825260208301602085012081835280955050505050506000915091505080600001805461057190611292565b80601f016020809104026020016040519081016040528092919081815260200182805461059d90611292565b80156105ea5780601f106105bf576101008083540402835291602001916105ea565b820191906000526020600020905b8154815290600101906020018083116105cd57829003601f168201915b5050505050908060010180546105ff90611292565b80601f016020809104026020016040519081016040528092919081815260200182805461062b90611292565b80156106785780601f1061064d57610100808354040283529160200191610678565b820191906000526020600020905b81548152906001019060200180831161065b57829003601f168201915b5050505050908060020154908060030160009054906101000a900460ff16905084565b606060006002836040516106af919061124c565b908152602001604051809103902080549050905060008167ffffffffffffffff8111156106df576106de610c27565b5b60405190808252806020026020018201604052801561071857816020015b610705610bce565b8152602001906001900390816106fd5790505b50905060005b828110156109ad576000600286604051610738919061124c565b90815260200160405180910390208281548110610758576107576115c8565b5b90600052602060002001805461076d90611292565b80601f016020809104026020016040519081016040528092919081815260200182805461079990611292565b80156107e65780601f106107bb576101008083540402835291602001916107e6565b820191906000526020600020905b8154815290600101906020018083116107c957829003601f168201915b505050505090506001816040516107fd919061124c565b908152602001604051809103902086604051610819919061124c565b908152602001604051809103902060405180608001604052908160008201805461084290611292565b80601f016020809104026020016040519081016040528092919081815260200182805461086e90611292565b80156108bb5780601f10610890576101008083540402835291602001916108bb565b820191906000526020600020905b81548152906001019060200180831161089e57829003601f168201915b505050505081526020016001820180546108d490611292565b80601f016020809104026020016040519081016040528092919081815260200182805461090090611292565b801561094d5780601f106109225761010080835404028352916020019161094d565b820191906000526020600020905b81548152906001019060200180831161093057829003601f168201915b50505050508152602001600282015481526020016003820160009054906101000a900460ff16151515158152505083838151811061098e5761098d6115c8565b5b60200260200101819052505080806109a590611626565b91505061071e565b508092505050919050565b6109c0610a7b565b6109ca6000610b02565b565b60008060009054906101000a900473ffffffffffffffffffffffffffffffffffffffff16905090565b6109fd610a7b565b600073ffffffffffffffffffffffffffffffffffffffff168173ffffffffffffffffffffffffffffffffffffffff1603610a6f5760006040517f1e4fbdf7000000000000000000000000000000000000000000000000000000008152600401610a66919061119c565b60405180910390fd5b610a7881610b02565b50565b610a83610bc6565b73ffffffffffffffffffffffffffffffffffffffff16610aa16109cc565b73ffffffffffffffffffffffffffffffffffffffff1614610b0057610ac4610bc6565b6040517f118cdaa7000000000000000000000000000000000000000000000000000000008152600401610af7919061119c565b60405180910390fd5b565b60008060009054906101000a900473ffffffffffffffffffffffffffffffffffffffff169050816000806101000a81548173ffffffffffffffffffffffffffffffffffffffff021916908373ffffffffffffffffffffffffffffffffffffffff1602179055508173ffffffffffffffffffffffffffffffffffffffff168173ffffffffffffffffffffffffffffffffffffffff167f8be0079c531659141344cd1fd0a4f28419497f9722a3daafe3b4186f6b6457e060405160405180910390a35050565b600033905090565b60405180608001604052806060815260200160608152602001600081526020016000151581525090565b6000604051905090565b600080fd5b600080fd5b600080fd5b600080fd5b6000601f19601f8301169050919050565b7f4e487b7100000000000000000000000000000000000000000000000000000000600052604160045260246000fd5b610c5f82610c16565b810181811067ffffffffffffffff82111715610c7e57610c7d610c27565b5b80604052505050565b6000610c91610bf8565b9050610c9d8282610c56565b919050565b600067ffffffffffffffff821115610cbd57610cbc610c27565b5b610cc682610c16565b9050602081019050919050565b82818337600083830152505050565b6000610cf5610cf084610ca2565b610c87565b905082815260208101848484011115610d1157610d10610c11565b5b610d1c848285610cd3565b509392505050565b600082601f830112610d3957610d38610c0c565b5b8135610d49848260208601610ce2565b91505092915050565b60008060408385031215610d6957610d68610c02565b5b600083013567ffffffffffffffff811115610d8757610d86610c07565b5b610d9385828601610d24565b925050602083013567ffffffffffffffff811115610db457610db3610c07565b5b610dc085828601610d24565b9150509250929050565b600081519050919050565b600082825260208201905092915050565b60005b83811015610e04578082015181840152602081019050610de9565b60008484015250505050565b6000610e1b82610dca565b610e258185610dd5565b9350610e35818560208601610de6565b610e3e81610c16565b840191505092915050565b6000819050919050565b610e5c81610e49565b82525050565b60008115159050919050565b610e7781610e62565b82525050565b60006080830160008301518482036000860152610e9a8282610e10565b91505060208301518482036020860152610eb48282610e10565b9150506040830151610ec96040860182610e53565b506060830151610edc6060860182610e6e565b508091505092915050565b60006020820190508181036000830152610f018184610e7d565b905092915050565b600082825260208201905092915050565b6000610f2582610dca565b610f2f8185610f09565b9350610f3f818560208601610de6565b610f4881610c16565b840191505092915050565b610f5c81610e49565b82525050565b610f6b81610e62565b82525050565b60006080820190508181036000830152610f8b8187610f1a565b90508181036020830152610f9f8186610f1a565b9050610fae6040830185610f53565b610fbb6060830184610f62565b95945050505050565b600060208284031215610fda57610fd9610c02565b5b600082013567ffffffffffffffff811115610ff857610ff7610c07565b5b61100484828501610d24565b91505092915050565b600081519050919050565b600082825260208201905092915050565b6000819050602082019050919050565b600060808301600083015184820360008601526110568282610e10565b915050602083015184820360208601526110708282610e10565b91505060408301516110856040860182610e53565b5060608301516110986060860182610e6e565b508091505092915050565b60006110af8383611039565b905092915050565b6000602082019050919050565b60006110cf8261100d565b6110d98185611018565b9350836020820285016110eb85611029565b8060005b85811015611127578484038952815161110885826110a3565b9450611113836110b7565b925060208a019950506001810190506110ef565b50829750879550505050505092915050565b6000602082019050818103600083015261115381846110c4565b905092915050565b600073ffffffffffffffffffffffffffffffffffffffff82169050919050565b60006111868261115b565b9050919050565b6111968161117b565b82525050565b60006020820190506111b1600083018461118d565b92915050565b6111c08161117b565b81146111cb57600080fd5b50565b6000813590506111dd816111b7565b92915050565b6000602082840312156111f9576111f8610c02565b5b6000611207848285016111ce565b91505092915050565b600081905092915050565b600061122682610dca565b6112308185611210565b9350611240818560208601610de6565b80840191505092915050565b6000611258828461121b565b915081905092915050565b7f4e487b7100000000000000000000000000000000000000000000000000000000600052602260045260246000fd5b600060028204905060018216806112aa57607f821691505b6020821081036112bd576112bc611263565b5b50919050565b7f436572746966696361746520616c726561647920657869737473000000000000600082015250565b60006112f9601a83610f09565b9150611304826112c3565b602082019050919050565b60006020820190508181036000830152611328816112ec565b9050919050565b60008190508160005260206000209050919050565b60006020601f8301049050919050565b600082821b905092915050565b6000600883026113917fffffffffffffffffffffffffffffffffffffffffffffffffffffffffffffffff82611354565b61139b8683611354565b95508019841693508086168417925050509392505050565b6000819050919050565b60006113d86113d36113ce84610e49565b6113b3565b610e49565b9050919050565b6000819050919050565b6113f2836113bd565b6114066113fe826113df565b848454611361565b825550505050565b600090565b61141b61140e565b6114268184846113e9565b505050565b5b8181101561144a5761143f600082611413565b60018101905061142c565b5050565b601f82111561148f576114608161132f565b61146984611344565b81016020851015611478578190505b61148c61148485611344565b83018261142b565b50505b505050565b600082821c905092915050565b60006114b260001984600802611494565b1980831691505092915050565b60006114cb83836114a1565b9150826002028217905092915050565b6114e482610dca565b67ffffffffffffffff8111156114fd576114fc610c27565b5b6115078254611292565b61151282828561144e565b600060209050601f8311600181146115455760008415611533578287015190505b61153d85826114bf565b8655506115a5565b601f1984166115538661132f565b60005b8281101561157b57848901518255600182019150602085019450602081019050611556565b868310156115985784890151611594601f8916826114a1565b8355505b6001600288020188555050505b505050505050565b60006020820190506115c26000830184610f53565b92915050565b7f4e487b7100000000000000000000000000000000000000000000000000000000600052603260045260246000fd5b7f4e487b7100000000000000000000000000000000000000000000000000000000600052601160045260246000fd5b600061163182610e49565b91507fffffffffffffffffffffffffffffffffffffffffffffffffffffffffffffffff8203611663576116626115f7565b5b60018201905091905056fea264697066735822122064c5eeeab21438adb9122ee1ac71d1a1d869e0e82eb172d4d9803bf3e674bb9564736f6c63430008140033",
  "linkReferences": {},
  "deployedLinkReferences": {}
}